{
	"mysoliditystudy/datatype.sol": {
		"BoolShortCircuit": {
			"abi": [
				{
					"inputs": [],
					"name": "get_balance",
					"outputs": [
						{
							"internalType": "uint256",
							"name": "",
							"type": "uint256"
						}
					],
					"stateMutability": "view",
					"type": "function"
				},
				{
					"inputs": [],
					"name": "get_code",
					"outputs": [
						{
							"internalType": "bytes",
							"name": "",
							"type": "bytes"
						}
					],
					"stateMutability": "view",
					"type": "function"
				},
				{
					"inputs": [],
					"name": "get_codehash",
					"outputs": [
						{
							"internalType": "bytes32",
							"name": "",
							"type": "bytes32"
						}
					],
					"stateMutability": "view",
					"type": "function"
				},
				{
					"inputs": [],
					"name": "zeroCount",
					"outputs": [
						{
							"internalType": "uint256",
							"name": "",
							"type": "uint256"
						}
					],
					"stateMutability": "view",
					"type": "function"
				}
			],
			"devdoc": {
				"kind": "dev",
				"methods": {},
				"version": 1
			},
			"evm": {
				"assembly": "    /* \"mysoliditystudy/datatype.sol\":63:950  contract BoolShortCircuit {... */\n  mstore(0x40, 0x80)\n    /* \"mysoliditystudy/datatype.sol\":110:152  0x690B9A9E9aa1C9dB991C7721a92d351Db4FaC990 */\n  0x690b9a9e9aa1c9db991c7721a92d351db4fac990\n    /* \"mysoliditystudy/datatype.sol\":95:152  address addr = 0x690B9A9E9aa1C9dB991C7721a92d351Db4FaC990 */\n  0x00\n  dup1\n  0x0100\n  exp\n  dup2\n  sload\n  dup2\n  0xffffffffffffffffffffffffffffffffffffffff\n  mul\n  not\n  and\n  swap1\n  dup4\n  0xffffffffffffffffffffffffffffffffffffffff\n  and\n  mul\n  or\n  swap1\n  sstore\n  pop\n    /* \"mysoliditystudy/datatype.sol\":186:187  0 */\n  0x00\n    /* \"mysoliditystudy/datatype.sol\":159:187  uint256 public zeroCount = 0 */\n  0x01\n  sstore\n    /* \"mysoliditystudy/datatype.sol\":63:950  contract BoolShortCircuit {... */\n  callvalue\n  dup1\n  iszero\n  tag_1\n  jumpi\n  0x00\n  dup1\n  revert\ntag_1:\n  pop\n  dataSize(sub_0)\n  dup1\n  dataOffset(sub_0)\n  0x00\n  codecopy\n  0x00\n  return\nstop\n\nsub_0: assembly {\n        /* \"mysoliditystudy/datatype.sol\":63:950  contract BoolShortCircuit {... */\n      mstore(0x40, 0x80)\n      callvalue\n      dup1\n      iszero\n      tag_1\n      jumpi\n      0x00\n      dup1\n      revert\n    tag_1:\n      pop\n      jumpi(tag_2, lt(calldatasize, 0x04))\n      shr(0xe0, calldataload(0x00))\n      dup1\n      0x1828e717\n      eq\n      tag_3\n      jumpi\n      dup1\n      0xa5555df7\n      eq\n      tag_4\n      jumpi\n      dup1\n      0xb2902fa1\n      eq\n      tag_5\n      jumpi\n      dup1\n      0xc1cfb99a\n      eq\n      tag_6\n      jumpi\n    tag_2:\n      0x00\n      dup1\n      revert\n        /* \"mysoliditystudy/datatype.sol\":693:811  function get_code() public view returns (bytes memory) {... */\n    tag_3:\n      tag_7\n      tag_8\n      jump\t// in\n    tag_7:\n      mload(0x40)\n      tag_9\n      swap2\n      swap1\n      tag_10\n      jump\t// in\n    tag_9:\n      mload(0x40)\n      dup1\n      swap2\n      sub\n      swap1\n      return\n        /* \"mysoliditystudy/datatype.sol\":159:187  uint256 public zeroCount = 0 */\n    tag_4:\n      tag_11\n      tag_12\n      jump\t// in\n    tag_11:\n      mload(0x40)\n      tag_13\n      swap2\n      swap1\n      tag_14\n      jump\t// in\n    tag_13:\n      mload(0x40)\n      dup1\n      swap2\n      sub\n      swap1\n      return\n        /* \"mysoliditystudy/datatype.sol\":817:948  function get_codehash() public view returns (bytes32) {... */\n    tag_5:\n      tag_15\n      tag_16\n      jump\t// in\n    tag_15:\n      mload(0x40)\n      tag_17\n      swap2\n      swap1\n      tag_18\n      jump\t// in\n    tag_17:\n      mload(0x40)\n      dup1\n      swap2\n      sub\n      swap1\n      return\n        /* \"mysoliditystudy/datatype.sol\":562:687  function get_balance() public view returns (uint256) {... */\n    tag_6:\n      tag_19\n      tag_20\n      jump\t// in\n    tag_19:\n      mload(0x40)\n      tag_21\n      swap2\n      swap1\n      tag_14\n      jump\t// in\n    tag_21:\n      mload(0x40)\n      dup1\n      swap2\n      sub\n      swap1\n      return\n        /* \"mysoliditystudy/datatype.sol\":693:811  function get_code() public view returns (bytes memory) {... */\n    tag_8:\n        /* \"mysoliditystudy/datatype.sol\":734:746  bytes memory */\n      0x60\n        /* \"mysoliditystudy/datatype.sol\":773:777  this */\n      address\n        /* \"mysoliditystudy/datatype.sol\":765:783  address(this).code */\n      0xffffffffffffffffffffffffffffffffffffffff\n      and\n      dup1\n      extcodesize\n      dup1\n      0x20\n      add\n      mload(0x40)\n      swap1\n      dup2\n      add\n      0x40\n      mstore\n      dup2\n      dup2\n      mstore\n      0x00\n      swap1\n      dup1\n      0x20\n      add\n      swap1\n      swap4\n      extcodecopy\n        /* \"mysoliditystudy/datatype.sol\":758:783  return address(this).code */\n      swap1\n      pop\n        /* \"mysoliditystudy/datatype.sol\":693:811  function get_code() public view returns (bytes memory) {... */\n      swap1\n      jump\t// out\n        /* \"mysoliditystudy/datatype.sol\":159:187  uint256 public zeroCount = 0 */\n    tag_12:\n      sload(0x01)\n      dup2\n      jump\t// out\n        /* \"mysoliditystudy/datatype.sol\":817:948  function get_codehash() public view returns (bytes32) {... */\n    tag_16:\n        /* \"mysoliditystudy/datatype.sol\":862:869  bytes32 */\n      0x00\n        /* \"mysoliditystudy/datatype.sol\":896:900  this */\n      address\n        /* \"mysoliditystudy/datatype.sol\":888:910  address(this).codehash */\n      0xffffffffffffffffffffffffffffffffffffffff\n      and\n      extcodehash\n        /* \"mysoliditystudy/datatype.sol\":881:910  return address(this).codehash */\n      swap1\n      pop\n        /* \"mysoliditystudy/datatype.sol\":817:948  function get_codehash() public view returns (bytes32) {... */\n      swap1\n      jump\t// out\n        /* \"mysoliditystudy/datatype.sol\":562:687  function get_balance() public view returns (uint256) {... */\n    tag_20:\n        /* \"mysoliditystudy/datatype.sol\":606:613  uint256 */\n      0x00\n        /* \"mysoliditystudy/datatype.sol\":632:653  address(this).balance */\n      selfbalance\n        /* \"mysoliditystudy/datatype.sol\":625:653  return address(this).balance */\n      swap1\n      pop\n        /* \"mysoliditystudy/datatype.sol\":562:687  function get_balance() public view returns (uint256) {... */\n      swap1\n      jump\t// out\n        /* \"#utility.yul\":7:105   */\n    tag_25:\n        /* \"#utility.yul\":58:64   */\n      0x00\n        /* \"#utility.yul\":92:97   */\n      dup2\n        /* \"#utility.yul\":86:98   */\n      mload\n        /* \"#utility.yul\":76:98   */\n      swap1\n      pop\n        /* \"#utility.yul\":7:105   */\n      swap2\n      swap1\n      pop\n      jump\t// out\n        /* \"#utility.yul\":111:279   */\n    tag_26:\n        /* \"#utility.yul\":194:205   */\n      0x00\n        /* \"#utility.yul\":228:234   */\n      dup3\n        /* \"#utility.yul\":223:226   */\n      dup3\n        /* \"#utility.yul\":216:235   */\n      mstore\n        /* \"#utility.yul\":268:272   */\n      0x20\n        /* \"#utility.yul\":263:266   */\n      dup3\n        /* \"#utility.yul\":259:273   */\n      add\n        /* \"#utility.yul\":244:273   */\n      swap1\n      pop\n        /* \"#utility.yul\":111:279   */\n      swap3\n      swap2\n      pop\n      pop\n      jump\t// out\n        /* \"#utility.yul\":285:424   */\n    tag_27:\n        /* \"#utility.yul\":374:380   */\n      dup3\n        /* \"#utility.yul\":369:372   */\n      dup2\n        /* \"#utility.yul\":364:367   */\n      dup4\n        /* \"#utility.yul\":358:381   */\n      mcopy\n        /* \"#utility.yul\":415:416   */\n      0x00\n        /* \"#utility.yul\":406:412   */\n      dup4\n        /* \"#utility.yul\":401:404   */\n      dup4\n        /* \"#utility.yul\":397:413   */\n      add\n        /* \"#utility.yul\":390:417   */\n      mstore\n        /* \"#utility.yul\":285:424   */\n      pop\n      pop\n      pop\n      jump\t// out\n        /* \"#utility.yul\":430:532   */\n    tag_28:\n        /* \"#utility.yul\":471:477   */\n      0x00\n        /* \"#utility.yul\":522:524   */\n      0x1f\n        /* \"#utility.yul\":518:525   */\n      not\n        /* \"#utility.yul\":513:515   */\n      0x1f\n        /* \"#utility.yul\":506:511   */\n      dup4\n        /* \"#utility.yul\":502:516   */\n      add\n        /* \"#utility.yul\":498:526   */\n      and\n        /* \"#utility.yul\":488:526   */\n      swap1\n      pop\n        /* \"#utility.yul\":430:532   */\n      swap2\n      swap1\n      pop\n      jump\t// out\n        /* \"#utility.yul\":538:911   */\n    tag_29:\n        /* \"#utility.yul\":624:627   */\n      0x00\n        /* \"#utility.yul\":652:690   */\n      tag_40\n        /* \"#utility.yul\":684:689   */\n      dup3\n        /* \"#utility.yul\":652:690   */\n      tag_25\n      jump\t// in\n    tag_40:\n        /* \"#utility.yul\":706:776   */\n      tag_41\n        /* \"#utility.yul\":769:775   */\n      dup2\n        /* \"#utility.yul\":764:767   */\n      dup6\n        /* \"#utility.yul\":706:776   */\n      tag_26\n      jump\t// in\n    tag_41:\n        /* \"#utility.yul\":699:776   */\n      swap4\n      pop\n        /* \"#utility.yul\":785:850   */\n      tag_42\n        /* \"#utility.yul\":843:849   */\n      dup2\n        /* \"#utility.yul\":838:841   */\n      dup6\n        /* \"#utility.yul\":831:835   */\n      0x20\n        /* \"#utility.yul\":824:829   */\n      dup7\n        /* \"#utility.yul\":820:836   */\n      add\n        /* \"#utility.yul\":785:850   */\n      tag_27\n      jump\t// in\n    tag_42:\n        /* \"#utility.yul\":875:904   */\n      tag_43\n        /* \"#utility.yul\":897:903   */\n      dup2\n        /* \"#utility.yul\":875:904   */\n      tag_28\n      jump\t// in\n    tag_43:\n        /* \"#utility.yul\":870:873   */\n      dup5\n        /* \"#utility.yul\":866:905   */\n      add\n        /* \"#utility.yul\":859:905   */\n      swap2\n      pop\n        /* \"#utility.yul\":628:911   */\n      pop\n        /* \"#utility.yul\":538:911   */\n      swap3\n      swap2\n      pop\n      pop\n      jump\t// out\n        /* \"#utility.yul\":917:1226   */\n    tag_10:\n        /* \"#utility.yul\":1028:1032   */\n      0x00\n        /* \"#utility.yul\":1066:1068   */\n      0x20\n        /* \"#utility.yul\":1055:1064   */\n      dup3\n        /* \"#utility.yul\":1051:1069   */\n      add\n        /* \"#utility.yul\":1043:1069   */\n      swap1\n      pop\n        /* \"#utility.yul\":1115:1124   */\n      dup2\n        /* \"#utility.yul\":1109:1113   */\n      dup2\n        /* \"#utility.yul\":1105:1125   */\n      sub\n        /* \"#utility.yul\":1101:1102   */\n      0x00\n        /* \"#utility.yul\":1090:1099   */\n      dup4\n        /* \"#utility.yul\":1086:1103   */\n      add\n        /* \"#utility.yul\":1079:1126   */\n      mstore\n        /* \"#utility.yul\":1143:1219   */\n      tag_45\n        /* \"#utility.yul\":1214:1218   */\n      dup2\n        /* \"#utility.yul\":1205:1211   */\n      dup5\n        /* \"#utility.yul\":1143:1219   */\n      tag_29\n      jump\t// in\n    tag_45:\n        /* \"#utility.yul\":1135:1219   */\n      swap1\n      pop\n        /* \"#utility.yul\":917:1226   */\n      swap3\n      swap2\n      pop\n      pop\n      jump\t// out\n        /* \"#utility.yul\":1232:1309   */\n    tag_30:\n        /* \"#utility.yul\":1269:1276   */\n      0x00\n        /* \"#utility.yul\":1298:1303   */\n      dup2\n        /* \"#utility.yul\":1287:1303   */\n      swap1\n      pop\n        /* \"#utility.yul\":1232:1309   */\n      swap2\n      swap1\n      pop\n      jump\t// out\n        /* \"#utility.yul\":1315:1433   */\n    tag_31:\n        /* \"#utility.yul\":1402:1426   */\n      tag_48\n        /* \"#utility.yul\":1420:1425   */\n      dup2\n        /* \"#utility.yul\":1402:1426   */\n      tag_30\n      jump\t// in\n    tag_48:\n        /* \"#utility.yul\":1397:1400   */\n      dup3\n        /* \"#utility.yul\":1390:1427   */\n      mstore\n        /* \"#utility.yul\":1315:1433   */\n      pop\n      pop\n      jump\t// out\n        /* \"#utility.yul\":1439:1661   */\n    tag_14:\n        /* \"#utility.yul\":1532:1536   */\n      0x00\n        /* \"#utility.yul\":1570:1572   */\n      0x20\n        /* \"#utility.yul\":1559:1568   */\n      dup3\n        /* \"#utility.yul\":1555:1573   */\n      add\n        /* \"#utility.yul\":1547:1573   */\n      swap1\n      pop\n        /* \"#utility.yul\":1583:1654   */\n      tag_50\n        /* \"#utility.yul\":1651:1652   */\n      0x00\n        /* \"#utility.yul\":1640:1649   */\n      dup4\n        /* \"#utility.yul\":1636:1653   */\n      add\n        /* \"#utility.yul\":1627:1633   */\n      dup5\n        /* \"#utility.yul\":1583:1654   */\n      tag_31\n      jump\t// in\n    tag_50:\n        /* \"#utility.yul\":1439:1661   */\n      swap3\n      swap2\n      pop\n      pop\n      jump\t// out\n        /* \"#utility.yul\":1667:1744   */\n    tag_32:\n        /* \"#utility.yul\":1704:1711   */\n      0x00\n        /* \"#utility.yul\":1733:1738   */\n      dup2\n        /* \"#utility.yul\":1722:1738   */\n      swap1\n      pop\n        /* \"#utility.yul\":1667:1744   */\n      swap2\n      swap1\n      pop\n      jump\t// out\n        /* \"#utility.yul\":1750:1868   */\n    tag_33:\n        /* \"#utility.yul\":1837:1861   */\n      tag_53\n        /* \"#utility.yul\":1855:1860   */\n      dup2\n        /* \"#utility.yul\":1837:1861   */\n      tag_32\n      jump\t// in\n    tag_53:\n        /* \"#utility.yul\":1832:1835   */\n      dup3\n        /* \"#utility.yul\":1825:1862   */\n      mstore\n        /* \"#utility.yul\":1750:1868   */\n      pop\n      pop\n      jump\t// out\n        /* \"#utility.yul\":1874:2096   */\n    tag_18:\n        /* \"#utility.yul\":1967:1971   */\n      0x00\n        /* \"#utility.yul\":2005:2007   */\n      0x20\n        /* \"#utility.yul\":1994:2003   */\n      dup3\n        /* \"#utility.yul\":1990:2008   */\n      add\n        /* \"#utility.yul\":1982:2008   */\n      swap1\n      pop\n        /* \"#utility.yul\":2018:2089   */\n      tag_55\n        /* \"#utility.yul\":2086:2087   */\n      0x00\n        /* \"#utility.yul\":2075:2084   */\n      dup4\n        /* \"#utility.yul\":2071:2088   */\n      add\n        /* \"#utility.yul\":2062:2068   */\n      dup5\n        /* \"#utility.yul\":2018:2089   */\n      tag_33\n      jump\t// in\n    tag_55:\n        /* \"#utility.yul\":1874:2096   */\n      swap3\n      swap2\n      pop\n      pop\n      jump\t// out\n\n    auxdata: 0xa264697066735822122083b24fd03c7cf17dfbf82e856c2ad8ab640679f0f170be4d17244007b10c770864736f6c634300081a0033\n}\n",
				"bytecode": {
					"linkReferences": {},
					"object": "608060405273690b9a9e9aa1c9db991c7721a92d351db4fac9905f806101000a81548173ffffffffffffffffffffffffffffffffffffffff021916908373ffffffffffffffffffffffffffffffffffffffff1602179055505f6001553480156065575f80fd5b50610252806100735f395ff3fe608060405234801561000f575f80fd5b506004361061004a575f3560e01c80631828e7171461004e578063a5555df71461006c578063b2902fa11461008a578063c1cfb99a146100a8575b5f80fd5b6100566100c6565b604051610063919061019a565b60405180910390f35b6100746100ff565b60405161008191906101d2565b60405180910390f35b610092610105565b60405161009f9190610203565b60405180910390f35b6100b0610123565b6040516100bd91906101d2565b60405180910390f35b60603073ffffffffffffffffffffffffffffffffffffffff16803b806020016040519081016040528181525f908060200190933c905090565b60015481565b5f3073ffffffffffffffffffffffffffffffffffffffff163f905090565b5f47905090565b5f81519050919050565b5f82825260208201905092915050565b8281835e5f83830152505050565b5f601f19601f8301169050919050565b5f61016c8261012a565b6101768185610134565b9350610186818560208601610144565b61018f81610152565b840191505092915050565b5f6020820190508181035f8301526101b28184610162565b905092915050565b5f819050919050565b6101cc816101ba565b82525050565b5f6020820190506101e55f8301846101c3565b92915050565b5f819050919050565b6101fd816101eb565b82525050565b5f6020820190506102165f8301846101f4565b9291505056fea264697066735822122083b24fd03c7cf17dfbf82e856c2ad8ab640679f0f170be4d17244007b10c770864736f6c634300081a0033",
					"opcodes": "PUSH1 0x80 PUSH1 0x40 MSTORE PUSH20 0x690B9A9E9AA1C9DB991C7721A92D351DB4FAC990 PUSH0 DUP1 PUSH2 0x100 EXP DUP2 SLOAD DUP2 PUSH20 0xFFFFFFFFFFFFFFFFFFFFFFFFFFFFFFFFFFFFFFFF MUL NOT AND SWAP1 DUP4 PUSH20 0xFFFFFFFFFFFFFFFFFFFFFFFFFFFFFFFFFFFFFFFF AND MUL OR SWAP1 SSTORE POP PUSH0 PUSH1 0x1 SSTORE CALLVALUE DUP1 ISZERO PUSH1 0x65 JUMPI PUSH0 DUP1 REVERT JUMPDEST POP PUSH2 0x252 DUP1 PUSH2 0x73 PUSH0 CODECOPY PUSH0 RETURN INVALID PUSH1 0x80 PUSH1 0x40 MSTORE CALLVALUE DUP1 ISZERO PUSH2 0xF JUMPI PUSH0 DUP1 REVERT JUMPDEST POP PUSH1 0x4 CALLDATASIZE LT PUSH2 0x4A JUMPI PUSH0 CALLDATALOAD PUSH1 0xE0 SHR DUP1 PUSH4 0x1828E717 EQ PUSH2 0x4E JUMPI DUP1 PUSH4 0xA5555DF7 EQ PUSH2 0x6C JUMPI DUP1 PUSH4 0xB2902FA1 EQ PUSH2 0x8A JUMPI DUP1 PUSH4 0xC1CFB99A EQ PUSH2 0xA8 JUMPI JUMPDEST PUSH0 DUP1 REVERT JUMPDEST PUSH2 0x56 PUSH2 0xC6 JUMP JUMPDEST PUSH1 0x40 MLOAD PUSH2 0x63 SWAP2 SWAP1 PUSH2 0x19A JUMP JUMPDEST PUSH1 0x40 MLOAD DUP1 SWAP2 SUB SWAP1 RETURN JUMPDEST PUSH2 0x74 PUSH2 0xFF JUMP JUMPDEST PUSH1 0x40 MLOAD PUSH2 0x81 SWAP2 SWAP1 PUSH2 0x1D2 JUMP JUMPDEST PUSH1 0x40 MLOAD DUP1 SWAP2 SUB SWAP1 RETURN JUMPDEST PUSH2 0x92 PUSH2 0x105 JUMP JUMPDEST PUSH1 0x40 MLOAD PUSH2 0x9F SWAP2 SWAP1 PUSH2 0x203 JUMP JUMPDEST PUSH1 0x40 MLOAD DUP1 SWAP2 SUB SWAP1 RETURN JUMPDEST PUSH2 0xB0 PUSH2 0x123 JUMP JUMPDEST PUSH1 0x40 MLOAD PUSH2 0xBD SWAP2 SWAP1 PUSH2 0x1D2 JUMP JUMPDEST PUSH1 0x40 MLOAD DUP1 SWAP2 SUB SWAP1 RETURN JUMPDEST PUSH1 0x60 ADDRESS PUSH20 0xFFFFFFFFFFFFFFFFFFFFFFFFFFFFFFFFFFFFFFFF AND DUP1 EXTCODESIZE DUP1 PUSH1 0x20 ADD PUSH1 0x40 MLOAD SWAP1 DUP2 ADD PUSH1 0x40 MSTORE DUP2 DUP2 MSTORE PUSH0 SWAP1 DUP1 PUSH1 0x20 ADD SWAP1 SWAP4 EXTCODECOPY SWAP1 POP SWAP1 JUMP JUMPDEST PUSH1 0x1 SLOAD DUP2 JUMP JUMPDEST PUSH0 ADDRESS PUSH20 0xFFFFFFFFFFFFFFFFFFFFFFFFFFFFFFFFFFFFFFFF AND EXTCODEHASH SWAP1 POP SWAP1 JUMP JUMPDEST PUSH0 SELFBALANCE SWAP1 POP SWAP1 JUMP JUMPDEST PUSH0 DUP2 MLOAD SWAP1 POP SWAP2 SWAP1 POP JUMP JUMPDEST PUSH0 DUP3 DUP3 MSTORE PUSH1 0x20 DUP3 ADD SWAP1 POP SWAP3 SWAP2 POP POP JUMP JUMPDEST DUP3 DUP2 DUP4 MCOPY PUSH0 DUP4 DUP4 ADD MSTORE POP POP POP JUMP JUMPDEST PUSH0 PUSH1 0x1F NOT PUSH1 0x1F DUP4 ADD AND SWAP1 POP SWAP2 SWAP1 POP JUMP JUMPDEST PUSH0 PUSH2 0x16C DUP3 PUSH2 0x12A JUMP JUMPDEST PUSH2 0x176 DUP2 DUP6 PUSH2 0x134 JUMP JUMPDEST SWAP4 POP PUSH2 0x186 DUP2 DUP6 PUSH1 0x20 DUP7 ADD PUSH2 0x144 JUMP JUMPDEST PUSH2 0x18F DUP2 PUSH2 0x152 JUMP JUMPDEST DUP5 ADD SWAP2 POP POP SWAP3 SWAP2 POP POP JUMP JUMPDEST PUSH0 PUSH1 0x20 DUP3 ADD SWAP1 POP DUP2 DUP2 SUB PUSH0 DUP4 ADD MSTORE PUSH2 0x1B2 DUP2 DUP5 PUSH2 0x162 JUMP JUMPDEST SWAP1 POP SWAP3 SWAP2 POP POP JUMP JUMPDEST PUSH0 DUP2 SWAP1 POP SWAP2 SWAP1 POP JUMP JUMPDEST PUSH2 0x1CC DUP2 PUSH2 0x1BA JUMP JUMPDEST DUP3 MSTORE POP POP JUMP JUMPDEST PUSH0 PUSH1 0x20 DUP3 ADD SWAP1 POP PUSH2 0x1E5 PUSH0 DUP4 ADD DUP5 PUSH2 0x1C3 JUMP JUMPDEST SWAP3 SWAP2 POP POP JUMP JUMPDEST PUSH0 DUP2 SWAP1 POP SWAP2 SWAP1 POP JUMP JUMPDEST PUSH2 0x1FD DUP2 PUSH2 0x1EB JUMP JUMPDEST DUP3 MSTORE POP POP JUMP JUMPDEST PUSH0 PUSH1 0x20 DUP3 ADD SWAP1 POP PUSH2 0x216 PUSH0 DUP4 ADD DUP5 PUSH2 0x1F4 JUMP JUMPDEST SWAP3 SWAP2 POP POP JUMP INVALID LOG2 PUSH5 0x6970667358 0x22 SLT KECCAK256 DUP4 0xB2 0x4F 0xD0 EXTCODECOPY PUSH29 0xF17DFBF82E856C2AD8AB640679F0F170BE4D17244007B10C770864736F PUSH13 0x634300081A0033000000000000 "
				},
				"gasEstimates": {
					"creation": {
						"codeDepositCost": "118800",
						"executionCost": "29434",
						"totalCost": "148234"
					},
					"external": {
						"get_balance()": "378",
						"get_code()": "infinite",
						"get_codehash()": "2959",
						"zeroCount()": "2425"
					},
					"internal": {
						"isEven(uint256)": "infinite",
						"isZero(uint256)": "infinite"
					}
				},
				"methodIdentifiers": {
					"get_balance()": "c1cfb99a",
					"get_code()": "1828e717",
					"get_codehash()": "b2902fa1",
					"zeroCount()": "a5555df7"
				}
			},
			"storageLayout": {
				"storage": [
					{
						"astId": 4,
						"contract": "mysoliditystudy/datatype.sol:BoolShortCircuit",
						"label": "addr",
						"offset": 0,
						"slot": "0",
						"type": "t_address"
					},
					{
						"astId": 7,
						"contract": "mysoliditystudy/datatype.sol:BoolShortCircuit",
						"label": "zeroCount",
						"offset": 0,
						"slot": "1",
						"type": "t_uint256"
					}
				],
				"types": {
					"t_address": {
						"encoding": "inplace",
						"label": "address",
						"numberOfBytes": "20"
					},
					"t_uint256": {
						"encoding": "inplace",
						"label": "uint256",
						"numberOfBytes": "32"
					}
				}
			},
			"userdoc": {
				"kind": "user",
				"methods": {},
				"version": 1
			}
		}
	}
}